:020000040000FA
:060000000A128A11FC2F18
:100F28008130831203139F00831603139F01080067
:100F3800FF30831603138500860187010A128A1180
:100F480094270A128A1100300A128A11C8270A1235
:100F58008A117108F9007008F800780883120313E1
:100F68008600790887000230F7000430F600BA30AE
:100F7800F500F50BBD2FF60BBD2FF70BBD2F0000AD
:100F8800A72F0A128A110028F40008307402031CE3
:100F9800CE2FCF2FD22FF001F101FB2FC530F20059
:100FA8007208831203139F057408F20002300310BD
:100FB800F20DFF3E031DDB2F0310720DF3007308C3
:100FC8009F040630F3003030F200F20BE92FF30BE8
:100FD800E92F0000831203131F151F19F42FF52F93
:100FE800F12F1E08F100831603131E08F0000800F5
:080FF80083010A128A119C2FEB
:00000001FF
